:060000000A128A11122809
:10000800FE00030E83120313BC000408BD000A0897
:10001800BE007F08BF000A128A112F280A128A110F
:1000280015280A128A11FC270A128A11ED00831377
:10003800A0308400BE300A128A15CF220A128A1113
:10004800583084006A300A128A15CF22EA018301E7
:100058000A128A155E2D8C1E482DCE01D101C301CE
:10006800D401D501C101C201D601D701C401C5011E
:10007800C601C701C801C9018C1E40289818462826
:10008800013047280030B40018194C2801304D2899
:100098000030340500380319352D1A08B4006808F3
:1000A800A03E84003408831380000130B400340873
:1000B800E8076808FF3EA03E84000D3000060319DB
:1000C8006D286808FF3EA03E84000A300006031D24
:1000D800482D6A100230831603132006031DDB29FE
:1000E8001530831203136802031C6329CC0180288E
:1000F8000130B4003408CC0768084C0203188F2874
:100108004C08A03E840023300006031D7C284C08C0
:10011800B4003408D1005108013EB4003408CD00C1
:1001280099280130B4003408CD0768084D02031837
:10013800A8284D08A03E840023300006031D9528FA
:100148004D08B4003408C3005108013EA03E8400A5
:100158002D300006031D452962295108013EA03EA5
:10016800840083130008D03EF000FF3003180030ED
:10017800F1006430F2000030F3000A128A15FD2203
:100188000A128A11700883120313B4007108B500AB
:100198005108023EA03E840083130008D03EF000C0
:1001A800FF3003180030F1000A30F2000030F3008D
:1001B8000A128A15FD220A128A1170088312031383
:1001C8003407D40071080318710A35074329510808
:1001D800013EA03E840083130008D03EF000FF30AB
:1001E80003180030F100E830F2000330F3000A127F
:1001F8008A15FD220A128A11700883120313B400AB
:100208007108B5005108023EA03E8400831300081F
:10021800D03EF000FF3003180030F1006430F200E7
:100228000030F3000A128A15FD220A128A1170089A
:10023800831203133407B60071080318710A3507CF
:10024800B7005108033EA03E840083130008D03E47
:10025800F000FF3003180030F1000A30F2000030DF
:10026800F3000A128A15FD220A128A1170088312F5
:1002780003133607D40071080318710A3707D5002D
:1002880061295108B400B501B409B509B40A0319C4
:10029800B50A43083407B60035080318350AB7000D
:1002A8003708003A0319592961293608033A03190E
:1002B800B128073A0319EB2861296A14E80168088C
:1002C800FF3EA03E84000A3083130006031DDD298B
:1002D8003030831603132606031D7B29303027068A
:1002E800031D7B2983120313D401D501D829831652
:1002F80003132608D03EF000FF3003180030F10049
:10030800E830F2000330F3000A128A15FD220A12BF
:100318008A11831603132908700783120313B40084
:1003280071080318710AB500831603132708D03E15
:10033800F000FF3003180030F1006430F2000030A4
:10034800F3000A128A15FD220A128A117008831214
:1003580003133407B60071080318710A3507B7008C
:10036800831603132808D03EF000FF30031800302E
:10037800F1000A30F2000030F3000A128A15FD225B
:100388000A128A117008831203133607B80071081D
:100398000318710A3707B9003808D03ED400390865
:1003A8000318013EFF3ED500E8016A14DD298312D7
:1003B800E80109308316031320060319AA2AB42A70
:1003C80083120313DA01DB01EB01EC01ED01ED0A05
:1003D8006C08F4006B08F30001300A128A150C242B
:1003E8000A128A11730883120313B4003408CE006A
:1003F80010304E06031DEC29F030B4003408E70035
:10040800F030B4003408E600F030B4003408E500F9
:10041800E401E301E201B42A8312DA01DB01D80125
:10042800D901831603132208D03EF000FF300318C9
:100438000030F1006430F2000030F3000A128A152F
:10044800FD220A128A1183160313240870078312E7
:100458000313B40071080318710AB5008316031357
:100468002308D03EF000FF3003180030F1000A30B6
:10047800F2000030F3000A128A15FD220A128A11CE
:100488007008831203133407B60071080318710A41
:100498003507B7003608D03EEB0037080318013E91
:1004A800FF3EEC0003106B0DEB006C0DEC00ED0152
:1004B800ED0A6C08F4006B08F30001300A128A1583
:1004C8000C240A128A11730883120313B400340827
:1004D800CE0010304E06031D5D2A6C08B5006B086F
:1004E800B4000310B50CB40C3408D6003508D70096
:1004F800E701E601E501E401E301E201003057020A
:10050800643003195602031C9E2A0130B4003408D3
:10051800E4076430D6020030031CD703D702822ACE
:100528000130B4003408E3070A30D6020030031C57
:10053800D703D702003057020A30031956020318AE
:10054800942A5608B4003408E200B42A8316031328
:100558002108473A0319102A153A0319E429B42A3D
:1005680083126A1C482D003055025B30031954026F
:10057800031CCD2A143069020318CD2A5408DC075D
:100588000318DD0A5508DD070130B4003408E9070F
:10059800482D5C085D040319482D003055025A3077
:1005A800031954020318482D6908B400B50134082A
:1005B800F0003508F1000A30F2000030F3000A12AA
:1005C8008A15FD220A128A117108F7007008F600D0
:1005D800831203135D08F9005C08F8000A128A15F3
:1005E800D0230A128A11770883120313D5007608DC
:1005F800D4005408013EF00055080318013E003E9F
:10060800F1006908B400B5013408F2003508F300B8
:100618000A128A15FD220A128A117108831203131D
:10062800CB007008CA004B08F1004A08F0000A30F5
:10063800F2000030F3000A128A15FD220A128A110C
:10064800710883120313C2007008C1006908B4005E
:10065800B5013408F0003508F1005508F3005408D6
:10066800F2000A128A15FD220A128A1171088312F1
:100678000313CB007008CA004B08F1004A08F000C9
:100688000A30F2000030F3000A128A15FD220A121D
:100698008A11710883120313D7007008D60056090F
:1006A800B4005709B500B40A0319B50A5C08340741
:1006B800B6005D0803185D0A3507B7005C09B80085
:1006C8005D09B900B80A0319B90A41083807BA0020
:1006D80042080318420A3907BB0037083B02031DCA
:1006E800772B36083A0203187F2B0130D4070318FA
:1006F800D50A0030D5075508A7005408A6000D30C4
:100708000A128A156A260A128A1183120313E4014F
:10071800E301E201D801D9016D080319432CED0169
:100728000130EB070318EC0A0030EC070C308400AA
:100738000A128A1500200A128A11B400B501350878
:100748005502031DA92B34085402031CC02B0B307F
:1007580084000A128A1500200A128A11B400B50111
:1007680055083502031DBA2B54083402031CC02B4C
:10077800071087140711C32B071087100715550892
:10078800D7005408D60000305702643003195602C7
:10079800031CE32B0130B4003408C4076430D602CC
:1007A8000030031CD703D702C72B0130B40034082C
:1007B800C5070A30D6020030031CD703D702003021
:1007C80057020A30031956020318D92B5608B400E9
:1007D8003408C6006B08013EB4006C080318013EDB
:1007E800003EB5000310B50CB40C3408D60035082B
:1007F800D70003305702E83003195602031C152CA2
:10080800E830D6020330031CD703D702FD2B013092
:10081800B4003408E4076430D6020030031CD70360
:10082800D70200305702643003195602031C272CE4
:100838000B2C0130B4003408E3070A30D60200302C
:10084800031CD703D702003057020A300319560297
:1008580003181D2C5608B4003408E20044080F3968
:10086800B4003408E70045080F39B4003408E6003E
:1008780046080F39B4003408E50005131D2DED01B5
:10088800ED0ADA01DB010130EB070318EC0A00304E
:10089800EC07871C782C0C3084000A128A1500207B
:1008A8000A128A11B400B50135085502031D5E2CE1
:1008B80034085402031C752C0B3084000A128A1564
:1008C80000200A128A11B400B50155083502031D2B
:1008D8006F2C54083402031C752C07148710071159
:1008E800782C0710871007155508D7005408D6002C
:1008F80000305702643003195602031C982C01304B
:10090800B4003408C7076430D6020030031CD7038C
:10091800D7027C2C0130B4003408C8070A30D6024C
:100928000030031CD703D702003057020A300319DE
:10093800560203188E2C5608B4003408C9006708FC
:100948000F39B4003408E70066080F39B4003408DA
:10095800E60065080F39B4003408E5004708B4001C
:1009680003300310B40DFF3E031DB52C0310340DE6
:10097800F039B5003508E7074808B400033003101C
:10098800B40DFF3E031DC32C0310340DF039B50020
:100998003508E6074908B40003300310B40DFF3EDC
:1009A800031DD12C0310340DF039B5003508E507C7
:1009B8006C08B5006B08B4000310B50CB40C34080F
:1009C800D6003508D70003305702E830031956021D
:1009D800031CFF2CE830D6020330031CD703D702D0
:1009E800E72C0130B4003408E4076430D602003044
:1009F800031CD703D702003057026430031956028C
:100A0800031C112DF52C0130B4003408E3070A301B
:100A1800D6020030031CD703D702003057020A3031
:100A2800031956020318072D5608B4003408E200CB
:100A380005176C08F4006B08F30001300A128A15D8
:100A48000C240A128A11730883120313B4003408A1
:100A5800CE0010304E06031D1D2DDC01DD01E9011D
:100A6800482D1A08B4003408C0001A08B400340825
:100A7800C0001812413083120313B400B40B422D86
:100A8800452D8312031318168C1CA92FD201D301EC
:100A9800CF01D0018C100130B4003408E1070430D4
:100AA8006102031C592DE101E10A0130B400340848
:100AB800DE07C8305E02031CA42DDE010130D80712
:100AC8000318D90A0030D9071C30590220300319FD
:100AD8005802031CA42D1C305902843003195802F3
:100AE8000318A42D8530D8001C30D900EB01EC0187
:100AF8006C08F4006B08F30001300A128A150C2404
:100B08000A128A11740883120313D0007308CF00E5
:100B180010304F065004031D7C2DED01ED0AE40151
:100B2800E301E201F030B4003408E700F030B4002B
:100B38003408E600F030B4003408E500DA01DB01DF
:100B480004305B02B03003195A020318AD2D01308E
:100B5800AE2D00306D050319B72D0130DA070318E3
:100B6800DB0A0030DB0704305B02B03003195A029D
:100B7800031CCF2DDA01DB01FF30B4003408E70095
:100B8800FF30B4003408E600FF30B4003408E50054
:100B98000710871007110A128A11B4270A128A113E
:100BA80083120313051AE52D600A0319DF2D01309E
:100BB800B4003408E0071A306002031CCC2EEA1592
:100BC800CC2EEA198C1ACB2EDA01DB01E0016D0874
:100BD8000319142EED016708B40004300310B40C97
:100BE800FF3E031DF22D34080F39B5003508E70024
:100BF8006608B40004300310B40CFF3E031DFF2D3B
:100C080034080F39B5003508E6006508B40004302B
:100C18000310B40CFF3E031D0C2E34080F393E2E72
:100C2800ED01ED0A05176708B40003300310B40D91
:100C3800FF3E031D1A2E0310340DF039B500350898
:100C4800E7006608B40003300310B40DFF3E031D2F
:100C5800282E0310340DF039B5003508E600650874
:100C6800B40003300310B40DFF3E031D362E0310ED
:100C7800340DF039B5003508E500EA110130EB070D
:100C88000318EC0A0030EC076C08F4006B08F3005A
:100C980001300A128A150C240A128A117408831268
:100CA8000313D0007308CF0010304F065004031D03
:100CB800482E851A7B2EEB01EC016C08F4006B08BA
:100CC800F30001300A128A150C240A128A117408DA
:100CD80083120313D0007308CF0010304F0650045E
:100CE800031D612E0130EB000030EC00EA146D08A2
:100CF8000319872E6B08013EB4006C080318013EE7
:100D0800003EB5008B2E6C08B5006B08B4000310CC
:100D1800B50CB40C3408D2003508D300E401E30163
:100D2800E20103305302E83003195202031CAD2ECE
:100D3800E830D2020330031CD303D302952E0130CE
:100D4800B4003408E4076430D2020030031CD30333
:100D5800D30200305302643003195202031CBF2E21
:100D6800A32E0130B4003408E3070A30D202003061
:100D7800031CD303D302003053020A300319520272
:100D88000318B52E5208B4003408E200CC2EE00156
:100D9800851ADB2E5F0A0319D52E0130B4003408FA
:100DA800DF071A305F02031CA92F6A15A92F6A19D9
:100DB8008C1AA82FDA01DB016A116D0803190A2FB2
:100DC800ED016708B40004300310B40CFF3E031DA6
:100DD800E82E34080F39B5003508E7006608B40076
:100DE80004300310B40CFF3E031DF52E34080F39F0
:100DF800B5003508E6006508B40004300310B40CEB
:100E0800FF3E031D022F34080F39342FED01ED0A80
:100E180005176708B40003300310B40DFF3E031D27
:100E2800102F0310340DF039B5003508E7006608B7
:100E3800B40003300310B40DFF3E031D1E2F031032
:100E4800340DF039B5003508E6006508B400033004
:100E58000310B40DFF3E031D2C2F0310340DF03981
:100E6800B5003508E500EA1C3C2FED01ED0AEA1053
:100E78006A110130EB020030031CEC03EC026C0831
:100E8800F4006B08F30001300A128A150C240A12C8
:100E98008A11740883120313D0007308CF0010302E
:100EA8004F065004031D432F6D080319642F6B0868
:100EB800013EB4006C080318013E003EB500682FDF
:100EC8006C08B5006B08B4000310B50CB40C3408FA
:100ED800D2003508D300E401E301E20103305302F4
:100EE800E83003195202031C8A2FE830D20203307B
:100EF800031CD303D302722F0130B4003408E40773
:100F08006430D2020030031CD303D30200305302F2
:100F1800643003195202031C9C2F802F0130B40047
:100F28003408E3070A30D2020030031CD303D3028B
:100F3800003053020A30031952020318922F520844
:100F4800B4003408E200A92FDF013F08FF003E0883
:100F58008A003D0884003C0E8300FE0E7E0E0900C8
:100F6800EE2F87110716871667088600640803198D
:100F7800C72F051FC32F6408C03885000800640800
:100F88008038850008008513080087150712871622
:100F9800660886006308031964080319DD2F051F16
:100FA800D92F6308C0388500080063088038850099
:100FB800080085130800871507168712650886003C
:100FC800051FEA2F6208C0388500080062088038CB
:100FD80085000800831203136108013A0319B52F2D
:100FE800033A0319C92F013A0319DF2FFB2F080011
:020FF8000134C2
:1010000008308A000408840A82070034013400345E
:101010000A34003464340034E834033410342734A0
:10102000BF34873425343034333464340A340034E4
:10158E00F000831203130C1EC82A7008990008007D
:10159E0064008001840A0406031900340406D02A6C
:1015AE00F100F0013A3071020318E32A3030710273
:1015BE00031CE32AF001F00A700C080083160313D3
:1015CE008C160C1218158316031787118316031326
:1015DE009A01333099001812831203139817831649
:1015EE00031398168312031318160800F401F5015D
:1015FE00701C072B7208F4070318F50A7308F50719
:10160E0001300310F20DF30DFF3E031D082B0130C8
:10161E000310F10CF00CFF3E031D0F2B700871042C
:10162E00031DFF2A7508F1007408F0000800F2008F
:10163E0071080319382B7208831203178D00700876
:10164E008C00831603178C130C1555308D00AA30A1
:10165E008D008C14831203130D1E312B0D120030CE
:10166E0008007208831203178D00831603178C135C
:10167E000C14831203170C08080083160313C20000
:10168E00C301831203138C10831603133F089200B9
:10169E003E08C00002300310C00DFF3E031D522B4A
:1016AE000310400DF83E7839C1004108C3000430E4
:1016BE00C0004008C3074208C0004008C3074308E3
:1016CE00831203139200831603138C1408008316DF
:1016DE000313C0003F0803198E2B40088312031713
:1016EE008D00831603133E08831203178C00831696
:1016FE0003178C130C1555308D00AA308D008C14E9
:10170E00831203130D1E872B0D1200300800831653
:10171E0003134008831203178D00831603178C13CF
:10172E000C14831203170C080800831203132008ED
:10173E0021040319CB2BA501A50AA11BB22B013045
:10174E000310A00DA10DFF3E031DA72B0130A40019
:10175E002408A507A42B21082302031DB82B20085B
:10176E002202031CC02B2008A2022108031CA30383
:10177E00A30201300310A10CA00CFF3E031DC12BD0
:10178E000130A502031DB22B2308A1002208A000E0
:10179E000800FB01FC01760877040319072CFD01F4
:1017AE00FD0AF71BE62B01300310F60DF70DFF3E79
:1017BE00031DDB2B0130FA007A08FD07D82B013010
:1017CE000310FB0DFC0DFF3E031DE72B770879027E
:1017DE00031DF32B76087802031CFC2B7608F80207
:1017EE007708031CF903F9027B1401300310F70C80
:1017FE00F60CFF3E031DFD2B0130FD02031DE62BF3
:10180E007C08F7007B08F6000800F700F801F901E4
:10181E00FA019F2CF001F10100300A128A151E23E5
:10182E000A128A15F5007508FA0010307A06031DA3
:10183E004E2CF001F10101300A128A151E230A12F4
:10184E008A15F5007508FA007A08F500F601750894
:10185E00F8007608F9007808F600F5017508F8002A
:10186E007608F900F001F10102300A128A151E23E2
:10187E000A128A15F5007508FA007A08F500F601C5
:10188E007508F8070318F90A7608F907A72C10301F
:10189E00F5007508F000F101F10A00300A128A1500
:1018AE001E230A128A15F001F101F10A01300A1203
:1018BE008A151E230A128A15F001F101F10A02306F
:1018CE000A128A151E230A128A15F801F901A72C8D
:1018DE007308F5007508FA007A08F5007508F0002F
:1018EE00F101F10A02300A128A151E230A128A1514
:1018FE007408F6007308F5007608F500F601750811
:10190E00F3007608F4007308F5007508FA007A08FB
:10191E00F5007508F000F101F10A01300A128A157E
:10192E001E230A128A151030F8000030F900A72C79
:10193E007708003A0319112C013A03196F2CA72CC2
:10194E007908F4007808F300080083160313C50025
:10195E00C601C701C801512DBE01BF0100300A12D8
:10196E008A156E230A128A1583160313C3004308C1
:10197E00C80010304806031DF62CBE01BF01013011
:10198E000A128A156E230A128A1583160313C300D0
:10199E004308C8004808C300C4014308C6004408F1
:1019AE00C7004608C400C3014308C6004408C70068
:1019BE00BE01BF0102300A128A156E230A128A1561
:1019CE0083160313C3004308C8004808C300C401AC
:1019DE004308C6070318C70A4408C707592D103015
:1019EE00C3004308BE00BF01BF0A00300A128A15A9
:1019FE006E230A128A1583160313BE01BF01BF0A96
:101A0E0001300A128A156E230A128A1583160313E1
:101A1E00BE01BF01BF0A02300A128A156E230A12D6
:101A2E008A1583160313C601C701592D4108C30039
:101A3E004308C8004808C3004308BE00BF01BF0AE0
:101A4E0002300A128A156E230A128A1583160313A0
:101A5E004208C4004108C3004408C300C40143083F
:101A6E00C1004408C2004108C3004308C80048082A
:101A7E00C3004308BE00BF01BF0A01300A128A1517
:101A8E006E230A128A15103083160313C600003017
:101A9E00C700592D4508003A0319B32C013A031912
:101AAE001D2D592D4708C2004608C100080071308F
:101ABE00831603138F00C0308B0083160317890122
:101ACE008801303083160313850086018701831247
:101ADE000313EA116A11003083160313C100C2000A
:101AEE0000300A128A15AC240A128A1583160313C3
:101AFE00420883120313EC0083160313410883126A
:101B0E000313EB006B1CFD2DED016B08013E8316DC
:101B1E000313C900831203136C080318013E003E21
:101B2E0083160313CA000310CA0CC90C4908BC0063
:101B3E004A08BD0003303D02E83003193C02031C85
:101B4E00BD2DE830BC020330031CBD03BD02A12D28
:101B5E000130C900490883120313E4076430831669
:101B6E000313BC020030031CBD03BD0200303D0256
:101B7E00643003193C02031CD32DAF2D0130C90074
:101B8E00490883120313E3070A3083160313BC02BA
:101B9E000030031CBD03BD0200303D020A300319A4
:101BAE003C020318C52D3C08C900490883120313D3
:101BBE00E2000F3083160313C90049088312031382
:101BCE00E7000F3083160313C9004908831203136D
:101BDE00E6000F3083160313C9004908831203135E
:101BEE00E5000517071087100715532EED01ED0AB6
:101BFE0005136C0883160313CA00831203136B08B4
:101C0E0083160313C9000310CA0CC90C4908BC0083
:101C1E004A08BD0003303D02E83003193C02031CA4
:101C2E002D2EE830BC020330031CBD03BD02112E65
:101C3E000130C900490883120313E4076430831688
:101C4E000313BC020030031CBD03BD0200303D0275
:101C5E00643003193C02031C432E1F2E0130C900B1
:101C6E00490883120313E3070A3083160313BC02D9
:101C7E000030031CBD03BD0200303D020A300319C3
:101C8E003C020318352E3C08C90049088312031381
:101C9E00E200071087140711EA10053083160313AC
:101CAE00C9004908BE007D30CA004A08BF00023094
:101CBE000A128A1544230A128A150A128A15E52277
:101CCE000A128A15692E83120313B0002630A8005B
:101CDE002808AB00013083120313B007FF30300722
:101CEE0084000A128A1500200A128A15A8002808F4
:101CFE00B3003308031908002530330603198E2E5E
:101D0E0033080A128A15C7220A128A15712E8312F7
:101D1E000313B101B201AF01992E2F150130A800A6
:101D2E002808B007300884000A128A1500200A120B
:101D3E008A15303A0319942EA42E300884000A1204
:101D4E008A1500200A128A150A128A15D7220A123B
:101D5E008A15031CF02E83120313B101B2010A304F
:101D6E00F0000030F100831203133208F300310843
:101D7E00F2000A128A15FD220A128A1571088312C0
:101D8E000313B2007008B100300884000A128A15DD
:101D9E0000200A128A15D03EA800FF30031800302A
:101DAE00A9002808B1070318B20A2908B2070130A2
:101DBE00A8002808B007300884000A128A150020EF
:101DCE000A128A150A128A15D7220A128A150318C0
:101DDE00B62E013083120313B007FF303007840094
:101DEE000A128A1500200A128A15B300003A031946
:101DFE00FF2F643A0319072F0D3A0319072F712E7F
:101E0E00831203132B08840083130008AD00840A89
:101E1E000008AE000230A8002808AB07AE1F202F26
:101E2E000330A8002808AF04AD09AE09AD0A0319A6
:101E3E00AE0AB301B30A053033060319472F330830
:101E4E00A8002807013E84000A128A1500200A12F3
:101E5E008A15A9000A128A1500200A128A15AA00EC
:101E6E002A082E02031D3D2F29082D02031C472F81
:101E7E000130A8002808B30705303306031D262FAE
:101E8E00310832040319552F2F0803390319552F22
:101E9E00FF30B1070318B20AFF30B2073308A800AB
:101EAE00A901A81BA9032908803AAA003208803A82
:101EBE002A02031D642F310828020318742F83127F
:101ECE0003133308A800A901A81BA9032808B1020F
:101EDE002908031CB203B202782F83120313B10137
:101EEE00B2012F1D992F2F0803390319842F2D307E
:101EFE000A128A15C7220A128A1583120313310891
:101F0E0032040319B92F30300A128A15C7220A1269
:101F1E008A15FF3083120313B1070318B20AFF307C
:101F2E00B207862F310832040319AF2F20300A1260
:101F3E008A15C7220A128A15FF3083120313B107BE
:101F4E000318B20AFF30B20731083204031D9D2F69
:101F5E002F0803390319B92F2D300A128A15C722FB
:101F6E000A128A15831203133308A8002808AC003E
:101F7E00FF3083120313A8002808AC072C0A03199C
:101F8E00712E0A30A0000030A1002C08A8002807EE
:101F9E00013E84000A128A1500200A128A15F600E4
:101FAE000A128A1500200A128A15F7002E08F90067
:101FBE002D08F8000A128A15D0230A128A157708FE
:101FCE0083120313A3007608A2000A128A159C231B
:101FDE000A128A15831203132008303EA90029081D
:101FEE00B30033080A128A15C7220A128A15BF2FA8
:021FFE000800D9
:04400E00F4EFFFFFCD
:00000001FF
